{
  "contractName": "Vote",
  "abi": [
    {
      "constant": false,
      "inputs": [
        {
          "internalType": "bytes32[]",
          "name": "candidateNames",
          "type": "bytes32[]"
        }
      ],
      "name": "Candidates",
      "outputs": [],
      "payable": false,
      "stateMutability": "nonpayable",
      "type": "function"
    },
    {
      "constant": true,
      "inputs": [
        {
          "internalType": "bytes32",
          "name": "cadidate",
          "type": "bytes32"
        }
      ],
      "name": "CandidateResult",
      "outputs": [
        {
          "internalType": "uint256",
          "name": "",
          "type": "uint256"
        }
      ],
      "payable": false,
      "stateMutability": "view",
      "type": "function"
    },
    {
      "constant": false,
      "inputs": [
        {
          "internalType": "bytes32",
          "name": "candidate",
          "type": "bytes32"
        }
      ],
      "name": "CastVote",
      "outputs": [],
      "payable": false,
      "stateMutability": "nonpayable",
      "type": "function"
    },
    {
      "constant": true,
      "inputs": [
        {
          "internalType": "bytes32",
          "name": "candidate",
          "type": "bytes32"
        }
      ],
      "name": "isValidCandidate",
      "outputs": [
        {
          "internalType": "bool",
          "name": "",
          "type": "bool"
        }
      ],
      "payable": false,
      "stateMutability": "view",
      "type": "function"
    },
    {
      "constant": true,
      "inputs": [
        {
          "internalType": "address",
          "name": "voter",
          "type": "address"
        }
      ],
      "name": "isValidVoter",
      "outputs": [
        {
          "internalType": "bool",
          "name": "",
          "type": "bool"
        }
      ],
      "payable": false,
      "stateMutability": "view",
      "type": "function"
    }
  ],
  "bytecode": "0x608060405234801561001057600080fd5b506104ab806100206000396000f3fe608060405234801561001057600080fd5b50600436106100575760003560e01c80634af461f41461005c5780638c1d9f3014610114578063cc12b3511461015a578063d25b11e01461019c578063fe00aa8e146101f8575b600080fd5b6101126004803603602081101561007257600080fd5b810190808035906020019064010000000081111561008f57600080fd5b8201836020820111156100a157600080fd5b803590602001918460208302840111640100000000831117156100c357600080fd5b919080806020026020016040519081016040528093929190818152602001838360200280828437600081840152601f19601f820116905080830192505050505050509192919290505050610226565b005b6101406004803603602081101561012a57600080fd5b8101908080359060200190929190505050610240565b604051808215151515815260200191505060405180910390f35b6101866004803603602081101561017057600080fd5b8101908080359060200190929190505050610296565b6040518082815260200191505060405180910390f35b6101de600480360360208110156101b257600080fd5b81019080803573ffffffffffffffffffffffffffffffffffffffff1690602001909291905050506102b3565b604051808215151515815260200191505060405180910390f35b6102246004803603602081101561020e57600080fd5b8101908080359060200190929190505050610355565b005b806000908051906020019061023c929190610404565b5050565b600080600090505b60008054905081101561028b57826000828154811061026357fe5b9060005260206000200154141561027e576001915050610291565b8080600101915050610248565b50600090505b919050565b600060026000838152602001908152602001600020549050919050565b600080600090505b60018054905081101561034a578273ffffffffffffffffffffffffffffffffffffffff16600182815481106102ec57fe5b9060005260206000200160009054906101000a900473ffffffffffffffffffffffffffffffffffffffff1673ffffffffffffffffffffffffffffffffffffffff16141561033d576000915050610350565b80806001019150506102bb565b50600190505b919050565b61035e81610240565b61036757600080fd5b610370336102b3565b61037957600080fd5b6001600260008381526020019081526020016000206000828254019250508190555060013390806001815401808255809150509060018203906000526020600020016000909192909190916101000a81548173ffffffffffffffffffffffffffffffffffffffff021916908373ffffffffffffffffffffffffffffffffffffffff1602179055505050565b828054828255906000526020600020908101928215610440579160200282015b8281111561043f578251825591602001919060010190610424565b5b50905061044d9190610451565b5090565b61047391905b8082111561046f576000816000905550600101610457565b5090565b9056fea265627a7a7231582077ceea68ac47986533d85f854a3da47a0ce7d77efad677eab33bba096a4859d364736f6c63430005100032",
  "source": "// SPDX-License-Identifier: GPL-3.0\r\npragma solidity >= 0.4 .16 < 0.8 .0;\r\n\r\ncontract Vote {\r\n\r\n    // list all the candidates\r\n    bytes32[] private candidates;\r\n\r\n    // list all the voters\r\n    address[] private voters;\r\n\r\n    // hashmap to get the votes\r\n    mapping(bytes32 => uint) private votesReceived;\r\n\r\n    //name of candidates running\r\n    function Candidates(bytes32[] memory candidateNames) public {\r\n        candidates = candidateNames;\r\n    }\r\n    //number of votes a candidate has received\r\n    function CandidateResult(bytes32 cadidate) view public returns(uint) {\r\n        return votesReceived[cadidate];\r\n    }\r\n    //cast vote for valid candidate\r\n    function CastVote(bytes32 candidate) public {\r\n        //check if candidate is valid\r\n        require(isValidCandidate(candidate));\r\n        require(isValidVoter(msg.sender));\r\n\r\n        votesReceived[candidate] += 1;\r\n        voters.push(msg.sender);\r\n    }\r\n\r\n    // for verifying if candidate is legit as well as the vote\r\n    function isValidCandidate(bytes32 candidate) view public returns(bool) {\r\n        for (uint i = 0; i < candidates.length; i++) {\r\n            if (candidates[i] == candidate) {\r\n                return true;\r\n            }\r\n        }\r\n        return false;\r\n    }\r\n\r\n    function isValidVoter(address voter) view public returns(bool) {\r\n        for (uint i = 0; i < voters.length; i++) {\r\n            if (voters[i] == voter) {\r\n                return false;\r\n            }\r\n        }\r\n        return true;\r\n    }\r\n}",
  "sourcePath": "G:/4th Year Content/Project 400/Elec-chain Frontend/elec-chain/contracts/Vote.sol",
  "compiler": {
    "name": "solc",
    "version": "0.5.16+commit.9c3226ce.Emscripten.clang"
  },
  "schemaVersion": "3.3.2",
  "updatedAt": "2020-11-17T11:52:14.518Z",
  "devdoc": {
    "methods": {}
  },
  "userdoc": {
    "methods": {}
  }
}